{
  "contractName": "PocCollection",
  "abi": [
    {
      "inputs": [],
      "stateMutability": "nonpayable",
      "type": "constructor"
    },
    {
      "anonymous": false,
      "inputs": [
        {
          "indexed": true,
          "internalType": "address",
          "name": "owner",
          "type": "address"
        },
        {
          "indexed": true,
          "internalType": "address",
          "name": "approved",
          "type": "address"
        },
        {
          "indexed": true,
          "internalType": "uint256",
          "name": "tokenId",
          "type": "uint256"
        }
      ],
      "name": "Approval",
      "type": "event"
    },
    {
      "anonymous": false,
      "inputs": [
        {
          "indexed": true,
          "internalType": "address",
          "name": "owner",
          "type": "address"
        },
        {
          "indexed": true,
          "internalType": "address",
          "name": "operator",
          "type": "address"
        },
        {
          "indexed": false,
          "internalType": "bool",
          "name": "approved",
          "type": "bool"
        }
      ],
      "name": "ApprovalForAll",
      "type": "event"
    },
    {
      "anonymous": false,
      "inputs": [
        {
          "indexed": false,
          "internalType": "uint256",
          "name": "tokenId",
          "type": "uint256"
        },
        {
          "indexed": false,
          "internalType": "address",
          "name": "creator",
          "type": "address"
        }
      ],
      "name": "NFTItemCreated",
      "type": "event"
    },
    {
      "anonymous": false,
      "inputs": [
        {
          "indexed": true,
          "internalType": "address",
          "name": "previousOwner",
          "type": "address"
        },
        {
          "indexed": true,
          "internalType": "address",
          "name": "newOwner",
          "type": "address"
        }
      ],
      "name": "OwnershipTransferred",
      "type": "event"
    },
    {
      "anonymous": false,
      "inputs": [
        {
          "indexed": true,
          "internalType": "address",
          "name": "from",
          "type": "address"
        },
        {
          "indexed": true,
          "internalType": "address",
          "name": "to",
          "type": "address"
        },
        {
          "indexed": true,
          "internalType": "uint256",
          "name": "tokenId",
          "type": "uint256"
        }
      ],
      "name": "Transfer",
      "type": "event"
    },
    {
      "inputs": [
        {
          "internalType": "address",
          "name": "to",
          "type": "address"
        },
        {
          "internalType": "uint256",
          "name": "tokenId",
          "type": "uint256"
        }
      ],
      "name": "approve",
      "outputs": [],
      "stateMutability": "nonpayable",
      "type": "function"
    },
    {
      "inputs": [
        {
          "internalType": "address",
          "name": "owner",
          "type": "address"
        }
      ],
      "name": "balanceOf",
      "outputs": [
        {
          "internalType": "uint256",
          "name": "",
          "type": "uint256"
        }
      ],
      "stateMutability": "view",
      "type": "function",
      "constant": true
    },
    {
      "inputs": [
        {
          "internalType": "uint256",
          "name": "tokenId",
          "type": "uint256"
        }
      ],
      "name": "getApproved",
      "outputs": [
        {
          "internalType": "address",
          "name": "",
          "type": "address"
        }
      ],
      "stateMutability": "view",
      "type": "function",
      "constant": true
    },
    {
      "inputs": [
        {
          "internalType": "address",
          "name": "owner",
          "type": "address"
        },
        {
          "internalType": "address",
          "name": "operator",
          "type": "address"
        }
      ],
      "name": "isApprovedForAll",
      "outputs": [
        {
          "internalType": "bool",
          "name": "",
          "type": "bool"
        }
      ],
      "stateMutability": "view",
      "type": "function",
      "constant": true
    },
    {
      "inputs": [],
      "name": "name",
      "outputs": [
        {
          "internalType": "string",
          "name": "",
          "type": "string"
        }
      ],
      "stateMutability": "view",
      "type": "function",
      "constant": true
    },
    {
      "inputs": [
        {
          "internalType": "uint256",
          "name": "",
          "type": "uint256"
        }
      ],
      "name": "ownedNFTURIs",
      "outputs": [
        {
          "internalType": "string",
          "name": "",
          "type": "string"
        }
      ],
      "stateMutability": "view",
      "type": "function",
      "constant": true
    },
    {
      "inputs": [],
      "name": "owner",
      "outputs": [
        {
          "internalType": "address",
          "name": "",
          "type": "address"
        }
      ],
      "stateMutability": "view",
      "type": "function",
      "constant": true
    },
    {
      "inputs": [],
      "name": "renounceOwnership",
      "outputs": [],
      "stateMutability": "nonpayable",
      "type": "function"
    },
    {
      "inputs": [
        {
          "internalType": "address",
          "name": "from",
          "type": "address"
        },
        {
          "internalType": "address",
          "name": "to",
          "type": "address"
        },
        {
          "internalType": "uint256",
          "name": "tokenId",
          "type": "uint256"
        }
      ],
      "name": "safeTransferFrom",
      "outputs": [],
      "stateMutability": "nonpayable",
      "type": "function"
    },
    {
      "inputs": [
        {
          "internalType": "address",
          "name": "from",
          "type": "address"
        },
        {
          "internalType": "address",
          "name": "to",
          "type": "address"
        },
        {
          "internalType": "uint256",
          "name": "tokenId",
          "type": "uint256"
        },
        {
          "internalType": "bytes",
          "name": "data",
          "type": "bytes"
        }
      ],
      "name": "safeTransferFrom",
      "outputs": [],
      "stateMutability": "nonpayable",
      "type": "function"
    },
    {
      "inputs": [
        {
          "internalType": "address",
          "name": "operator",
          "type": "address"
        },
        {
          "internalType": "bool",
          "name": "approved",
          "type": "bool"
        }
      ],
      "name": "setApprovalForAll",
      "outputs": [],
      "stateMutability": "nonpayable",
      "type": "function"
    },
    {
      "inputs": [],
      "name": "symbol",
      "outputs": [
        {
          "internalType": "string",
          "name": "",
          "type": "string"
        }
      ],
      "stateMutability": "view",
      "type": "function",
      "constant": true
    },
    {
      "inputs": [
        {
          "internalType": "uint256",
          "name": "index",
          "type": "uint256"
        }
      ],
      "name": "tokenByIndex",
      "outputs": [
        {
          "internalType": "uint256",
          "name": "",
          "type": "uint256"
        }
      ],
      "stateMutability": "view",
      "type": "function",
      "constant": true
    },
    {
      "inputs": [
        {
          "internalType": "address",
          "name": "owner",
          "type": "address"
        },
        {
          "internalType": "uint256",
          "name": "index",
          "type": "uint256"
        }
      ],
      "name": "tokenOfOwnerByIndex",
      "outputs": [
        {
          "internalType": "uint256",
          "name": "",
          "type": "uint256"
        }
      ],
      "stateMutability": "view",
      "type": "function",
      "constant": true
    },
    {
      "inputs": [],
      "name": "totalSupply",
      "outputs": [
        {
          "internalType": "uint256",
          "name": "",
          "type": "uint256"
        }
      ],
      "stateMutability": "view",
      "type": "function",
      "constant": true
    },
    {
      "inputs": [
        {
          "internalType": "address",
          "name": "from",
          "type": "address"
        },
        {
          "internalType": "address",
          "name": "to",
          "type": "address"
        },
        {
          "internalType": "uint256",
          "name": "tokenId",
          "type": "uint256"
        }
      ],
      "name": "transferFrom",
      "outputs": [],
      "stateMutability": "nonpayable",
      "type": "function"
    },
    {
      "inputs": [
        {
          "internalType": "address",
          "name": "newOwner",
          "type": "address"
        }
      ],
      "name": "transferOwnership",
      "outputs": [],
      "stateMutability": "nonpayable",
      "type": "function"
    },
    {
      "inputs": [
        {
          "internalType": "address",
          "name": "owner",
          "type": "address"
        }
      ],
      "name": "ownerExists",
      "outputs": [
        {
          "internalType": "bool",
          "name": "",
          "type": "bool"
        }
      ],
      "stateMutability": "view",
      "type": "function",
      "constant": true
    },
    {
      "inputs": [
        {
          "internalType": "string",
          "name": "pocTokenuri",
          "type": "string"
        }
      ],
      "name": "mintToken",
      "outputs": [
        {
          "internalType": "uint256",
          "name": "",
          "type": "uint256"
        }
      ],
      "stateMutability": "payable",
      "type": "function",
      "payable": true
    },
    {
      "inputs": [],
      "name": "pocTotalSupply",
      "outputs": [
        {
          "internalType": "uint256",
          "name": "",
          "type": "uint256"
        }
      ],
      "stateMutability": "view",
      "type": "function",
      "constant": true
    },
    {
      "inputs": [
        {
          "internalType": "uint256",
          "name": "index",
          "type": "uint256"
        }
      ],
      "name": "poctokenByIndex",
      "outputs": [
        {
          "internalType": "uint256",
          "name": "",
          "type": "uint256"
        }
      ],
      "stateMutability": "view",
      "type": "function",
      "constant": true
    },
    {
      "inputs": [
        {
          "internalType": "uint256",
          "name": "tokenId",
          "type": "uint256"
        }
      ],
      "name": "getNFTItem",
      "outputs": [
        {
          "components": [
            {
              "internalType": "uint256",
              "name": "tokenId",
              "type": "uint256"
            }
          ],
          "internalType": "struct PocCollection.NFTItem",
          "name": "",
          "type": "tuple"
        }
      ],
      "stateMutability": "view",
      "type": "function",
      "constant": true
    },
    {
      "inputs": [
        {
          "internalType": "address",
          "name": "owner",
          "type": "address"
        }
      ],
      "name": "getTokenID",
      "outputs": [
        {
          "internalType": "uint256",
          "name": "",
          "type": "uint256"
        }
      ],
      "stateMutability": "view",
      "type": "function",
      "constant": true
    },
    {
      "inputs": [
        {
          "internalType": "uint256",
          "name": "tokenId",
          "type": "uint256"
        }
      ],
      "name": "ownerOf",
      "outputs": [
        {
          "internalType": "address",
          "name": "",
          "type": "address"
        }
      ],
      "stateMutability": "view",
      "type": "function",
      "constant": true
    },
    {
      "inputs": [
        {
          "internalType": "uint256",
          "name": "tokenId",
          "type": "uint256"
        }
      ],
      "name": "tokenURI",
      "outputs": [
        {
          "internalType": "string",
          "name": "",
          "type": "string"
        }
      ],
      "stateMutability": "view",
      "type": "function",
      "constant": true
    },
    {
      "inputs": [
        {
          "internalType": "uint256",
          "name": "tokenId",
          "type": "uint256"
        }
      ],
      "name": "getOwnedNfts",
      "outputs": [
        {
          "internalType": "string[]",
          "name": "",
          "type": "string[]"
        }
      ],
      "stateMutability": "nonpayable",
      "type": "function"
    },
    {
      "inputs": [
        {
          "internalType": "bytes4",
          "name": "interfaceId",
          "type": "bytes4"
        }
      ],
      "name": "supportsInterface",
      "outputs": [
        {
          "internalType": "bool",
          "name": "",
          "type": "bool"
        }
      ],
      "stateMutability": "view",
      "type": "function",
      "constant": true
    },
    {
      "inputs": [
        {
          "internalType": "address[]",
          "name": "listenAddress",
          "type": "address[]"
        }
      ],
      "name": "setListenContracts",
      "outputs": [],
      "stateMutability": "nonpayable",
      "type": "function"
    }
  ],
  "bytecode": "0x608060405260405180602001604052807324a16bb4bab401bb462a809e98012a73782dfdfd73ffffffffffffffffffffffffffffffffffffffff1673ffffffffffffffffffffffffffffffffffffffff16815250600e9060016200006592919062000208565b503480156200007357600080fd5b506040518060400160405280601181526020017f46617474794372656174757265734e46540000000000000000000000000000008152506040518060400160405280600581526020017f46434e46540000000000000000000000000000000000000000000000000000008152508160009080519060200190620000f892919062000297565b5080600190805190602001906200011192919062000297565b50505062000134620001286200013a60201b60201c565b6200014260201b60201c565b620003ab565b600033905090565b6000600b60009054906101000a900473ffffffffffffffffffffffffffffffffffffffff16905081600b60006101000a81548173ffffffffffffffffffffffffffffffffffffffff021916908373ffffffffffffffffffffffffffffffffffffffff1602179055508173ffffffffffffffffffffffffffffffffffffffff168173ffffffffffffffffffffffffffffffffffffffff167f8be0079c531659141344cd1fd0a4f28419497f9722a3daafe3b4186f6b6457e060405160405180910390a35050565b82805482825590600052602060002090810192821562000284579160200282015b82811115620002835782518260006101000a81548173ffffffffffffffffffffffffffffffffffffffff021916908373ffffffffffffffffffffffffffffffffffffffff1602179055509160200191906001019062000229565b5b50905062000293919062000328565b5090565b828054620002a59062000376565b90600052602060002090601f016020900481019282620002c9576000855562000315565b82601f10620002e457805160ff191683800117855562000315565b8280016001018555821562000315579182015b8281111562000314578251825591602001919060010190620002f7565b5b50905062000324919062000328565b5090565b5b808211156200034357600081600090555060010162000329565b5090565b7f4e487b7100000000000000000000000000000000000000000000000000000000600052602260045260246000fd5b600060028204905060018216806200038f57607f821691505b602082108103620003a557620003a462000347565b5b50919050565b61479280620003bb6000396000f3fe6080604052600436106101b75760003560e01c80636352211e116100ec578063a22cb4651161008a578063c87b56dd11610064578063c87b56dd14610683578063e985e9c5146106c0578063f1d4c65a146106fd578063f2fde38b14610726576101b7565b8063a22cb465146105f4578063b88d4fde1461061d578063b8b6f0a914610646576101b7565b806370a08231116100c657806370a082311461054a578063715018a6146105875780638da5cb5b1461059e57806395d89b41146105c9576101b7565b80636352211e1461049357806363f8071c146104d05780636a3ceff91461050d576101b7565b80632f745c591161015957806349cd10b11161013357806349cd10b1146103b15780634f6ccce7146103ee57806353dae4c21461042b57806359dbfde814610456576101b7565b80632f745c591461031b57806333eba49a1461035857806342842e0e14610388576101b7565b8063095ea7b311610195578063095ea7b31461026157806318160ddd1461028a57806323b872dd146102b55780632a7f2dff146102de576101b7565b806301ffc9a7146101bc57806306fdde03146101f9578063081812fc14610224575b600080fd5b3480156101c857600080fd5b506101e360048036038101906101de9190612f7e565b61074f565b6040516101f09190612fc6565b60405180910390f35b34801561020557600080fd5b5061020e610831565b60405161021b919061307a565b60405180910390f35b34801561023057600080fd5b5061024b600480360381019061024691906130d2565b6108c3565b6040516102589190613140565b60405180910390f35b34801561026d57600080fd5b5061028860048036038101906102839190613187565b610909565b005b34801561029657600080fd5b5061029f610a20565b6040516102ac91906131d6565b60405180910390f35b3480156102c157600080fd5b506102dc60048036038101906102d791906131f1565b610a2d565b005b3480156102ea57600080fd5b50610305600480360381019061030091906130d2565b610a8d565b6040516103129190613350565b60405180910390f35b34801561032757600080fd5b50610342600480360381019061033d9190613187565b610e32565b60405161034f91906131d6565b60405180910390f35b610372600480360381019061036d91906134a7565b610ed7565b60405161037f91906131d6565b60405180910390f35b34801561039457600080fd5b506103af60048036038101906103aa91906131f1565b61106c565b005b3480156103bd57600080fd5b506103d860048036038101906103d391906130d2565b61108c565b6040516103e5919061307a565b60405180910390f35b3480156103fa57600080fd5b50610415600480360381019061041091906130d2565b611138565b60405161042291906131d6565b60405180910390f35b34801561043757600080fd5b506104406111a9565b60405161044d91906131d6565b60405180910390f35b34801561046257600080fd5b5061047d600480360381019061047891906134f0565b6111b6565b60405161048a9190612fc6565b60405180910390f35b34801561049f57600080fd5b506104ba60048036038101906104b591906130d2565b611213565b6040516104c79190613140565b60405180910390f35b3480156104dc57600080fd5b506104f760048036038101906104f291906134f0565b611225565b60405161050491906131d6565b60405180910390f35b34801561051957600080fd5b50610534600480360381019061052f91906130d2565b61126e565b6040516105419190613548565b60405180910390f35b34801561055657600080fd5b50610571600480360381019061056c91906134f0565b6112a5565b60405161057e91906131d6565b60405180910390f35b34801561059357600080fd5b5061059c61135c565b005b3480156105aa57600080fd5b506105b3611370565b6040516105c09190613140565b60405180910390f35b3480156105d557600080fd5b506105de61139a565b6040516105eb919061307a565b60405180910390f35b34801561060057600080fd5b5061061b6004803603810190610616919061358f565b61142c565b005b34801561062957600080fd5b50610644600480360381019061063f9190613670565b611442565b005b34801561065257600080fd5b5061066d600480360381019061066891906130d2565b6114a4565b60405161067a91906131d6565b60405180910390f35b34801561068f57600080fd5b506106aa60048036038101906106a591906130d2565b611515565b6040516106b7919061307a565b60405180910390f35b3480156106cc57600080fd5b506106e760048036038101906106e291906136f3565b611527565b6040516106f49190612fc6565b60405180910390f35b34801561070957600080fd5b50610724600480360381019061071f91906137fb565b6115bb565b005b34801561073257600080fd5b5061074d600480360381019061074891906134f0565b6115d5565b005b60007f80ac58cd000000000000000000000000000000000000000000000000000000007bffffffffffffffffffffffffffffffffffffffffffffffffffffffff1916827bffffffffffffffffffffffffffffffffffffffffffffffffffffffff1916148061081a57507f5b5e139f000000000000000000000000000000000000000000000000000000007bffffffffffffffffffffffffffffffffffffffffffffffffffffffff1916827bffffffffffffffffffffffffffffffffffffffffffffffffffffffff1916145b8061082a575061082982611658565b5b9050919050565b60606000805461084090613873565b80601f016020809104026020016040519081016040528092919081815260200182805461086c90613873565b80156108b95780601f1061088e576101008083540402835291602001916108b9565b820191906000526020600020905b81548152906001019060200180831161089c57829003601f168201915b5050505050905090565b60006108ce826116d2565b6004600083815260200190815260200160002060009054906101000a900473ffffffffffffffffffffffffffffffffffffffff169050919050565b60006109148261171d565b90508073ffffffffffffffffffffffffffffffffffffffff168373ffffffffffffffffffffffffffffffffffffffff1603610984576040517f08c379a000000000000000000000000000000000000000000000000000000000815260040161097b90613916565b60405180910390fd5b8073ffffffffffffffffffffffffffffffffffffffff166109a36117ce565b73ffffffffffffffffffffffffffffffffffffffff1614806109d257506109d1816109cc6117ce565b611527565b5b610a11576040517f08c379a0000000000000000000000000000000000000000000000000000000008152600401610a08906139a8565b60405180910390fd5b610a1b83836117d6565b505050565b6000600980549050905090565b610a3e610a386117ce565b8261188f565b610a7d576040517f08c379a0000000000000000000000000000000000000000000000000000000008152600401610a7490613a3a565b60405180910390fd5b610a88838383611924565b505050565b6060600060116000848152602001908152602001600020805480602002602001604051908101604052809291908181526020018280548015610b2457602002820191906000526020600020905b8160009054906101000a900473ffffffffffffffffffffffffffffffffffffffff1673ffffffffffffffffffffffffffffffffffffffff1681526020019060010190808311610ada575b505050505090506000610b3684611213565b905060005b8251811015610d56576000838281518110610b5957610b58613a5a565b5b6020026020010151905060008173ffffffffffffffffffffffffffffffffffffffff166370a08231856040518263ffffffff1660e01b8152600401610b9e9190613140565b602060405180830381865afa158015610bbb573d6000803e3d6000fd5b505050506040513d601f19601f82011682018060405250810190610bdf9190613a9e565b905060005b81811015610d405760008373ffffffffffffffffffffffffffffffffffffffff16632f745c5987846040518363ffffffff1660e01b8152600401610c29929190613acb565b602060405180830381865afa158015610c46573d6000803e3d6000fd5b505050506040513d601f19601f82011682018060405250810190610c6a9190613a9e565b905060008473ffffffffffffffffffffffffffffffffffffffff1663c87b56dd836040518263ffffffff1660e01b8152600401610ca791906131d6565b600060405180830381865afa158015610cc4573d6000803e3d6000fd5b505050506040513d6000823e3d601f19601f82011682018060405250810190610ced9190613b64565b9050600f81908060018154018082558091505060019003906000526020600020016000909190919091509080519060200190610d2a929190612d80565b5050508080610d3890613bdc565b915050610be4565b5050508080610d4e90613bdc565b915050610b3b565b50600f805480602002602001604051908101604052809291908181526020016000905b82821015610e25578382906000526020600020018054610d9890613873565b80601f0160208091040260200160405190810160405280929190818152602001828054610dc490613873565b8015610e115780601f10610de657610100808354040283529160200191610e11565b820191906000526020600020905b815481529060010190602001808311610df457829003601f168201915b505050505081526020019060010190610d79565b5050505092505050919050565b6000610e3d836112a5565b8210610e7e576040517f08c379a0000000000000000000000000000000000000000000000000000000008152600401610e7590613c96565b60405180910390fd5b600760008473ffffffffffffffffffffffffffffffffffffffff1673ffffffffffffffffffffffffffffffffffffffff168152602001908152602001600020600083815260200190815260200160002054905092915050565b6000610ee2336111b6565b15610f22576040517f08c379a0000000000000000000000000000000000000000000000000000000008152600401610f1990613d02565b60405180910390fd5b60c7610f2c6111a9565b1115610f6d576040517f08c379a0000000000000000000000000000000000000000000000000000000008152600401610f6490613d94565b60405180910390fd5b610f77600d611b8a565b610f81600c611b8a565b6000610f8d600d611ba0565b9050610f9b60003383611bae565b610fa53382611ca2565b610faf8184611cc0565b3373ffffffffffffffffffffffffffffffffffffffff166013600083815260200190815260200160002060009054906101000a90505050600e60116000838152602001908152602001600020908054611009929190612e06565b5060011515601260003373ffffffffffffffffffffffffffffffffffffffff1673ffffffffffffffffffffffffffffffffffffffff16815260200190815260200160002060009054906101000a9050505061106381611d34565b80915050919050565b61108783838360405180602001604052806000815250611442565b505050565b600f818154811061109c57600080fd5b9060005260206000200160009150905080546110b790613873565b80601f01602080910402602001604051908101604052809291908181526020018280546110e390613873565b80156111305780601f1061110557610100808354040283529160200191611130565b820191906000526020600020905b81548152906001019060200180831161111357829003601f168201915b505050505081565b6000611142610a20565b8210611183576040517f08c379a000000000000000000000000000000000000000000000000000000000815260040161117a90613e26565b60405180910390fd5b6009828154811061119757611196613a5a565b5b90600052602060002001549050919050565b6000601080549050905090565b600060011515601260008473ffffffffffffffffffffffffffffffffffffffff1673ffffffffffffffffffffffffffffffffffffffff16815260200190815260200160002060009054906101000a900460ff161515149050919050565b600061121e8261171d565b9050919050565b6000601560008373ffffffffffffffffffffffffffffffffffffffff1673ffffffffffffffffffffffffffffffffffffffff168152602001908152602001600020549050919050565b611276612e58565b601460008381526020019081526020016000206040518060200160405290816000820154815250509050919050565b60008073ffffffffffffffffffffffffffffffffffffffff168273ffffffffffffffffffffffffffffffffffffffff1603611315576040517f08c379a000000000000000000000000000000000000000000000000000000000815260040161130c90613eb8565b60405180910390fd5b600360008373ffffffffffffffffffffffffffffffffffffffff1673ffffffffffffffffffffffffffffffffffffffff168152602001908152602001600020549050919050565b611364611d9f565b61136e6000611e1d565b565b6000600b60009054906101000a900473ffffffffffffffffffffffffffffffffffffffff16905090565b6060600180546113a990613873565b80601f01602080910402602001604051908101604052809291908181526020018280546113d590613873565b80156114225780601f106113f757610100808354040283529160200191611422565b820191906000526020600020905b81548152906001019060200180831161140557829003601f168201915b5050505050905090565b61143e6114376117ce565b8383611ee3565b5050565b61145361144d6117ce565b8361188f565b611492576040517f08c379a000000000000000000000000000000000000000000000000000000000815260040161148990613a3a565b60405180910390fd5b61149e8484848461204f565b50505050565b60006114ae6111a9565b82106114ef576040517f08c379a00000000000000000000000000000000000000000000000000000000081526004016114e690613f24565b60405180910390fd5b6010828154811061150357611502613a5a565b5b90600052602060002001549050919050565b6060611520826120ab565b9050919050565b6000600560008473ffffffffffffffffffffffffffffffffffffffff1673ffffffffffffffffffffffffffffffffffffffff16815260200190815260200160002060008373ffffffffffffffffffffffffffffffffffffffff1673ffffffffffffffffffffffffffffffffffffffff16815260200190815260200160002060009054906101000a900460ff16905092915050565b80600e90805190602001906115d1929190612e6b565b5050565b6115dd611d9f565b600073ffffffffffffffffffffffffffffffffffffffff168173ffffffffffffffffffffffffffffffffffffffff160361164c576040517f08c379a000000000000000000000000000000000000000000000000000000000815260040161164390613fb6565b60405180910390fd5b61165581611e1d565b50565b60007f780e9d63000000000000000000000000000000000000000000000000000000007bffffffffffffffffffffffffffffffffffffffffffffffffffffffff1916827bffffffffffffffffffffffffffffffffffffffffffffffffffffffff191614806116cb57506116ca826121bd565b5b9050919050565b6116db8161229f565b61171a576040517f08c379a000000000000000000000000000000000000000000000000000000000815260040161171190614022565b60405180910390fd5b50565b6000806002600084815260200190815260200160002060009054906101000a900473ffffffffffffffffffffffffffffffffffffffff169050600073ffffffffffffffffffffffffffffffffffffffff168173ffffffffffffffffffffffffffffffffffffffff16036117c5576040517f08c379a00000000000000000000000000000000000000000000000000000000081526004016117bc90614022565b60405180910390fd5b80915050919050565b600033905090565b816004600083815260200190815260200160002060006101000a81548173ffffffffffffffffffffffffffffffffffffffff021916908373ffffffffffffffffffffffffffffffffffffffff160217905550808273ffffffffffffffffffffffffffffffffffffffff166118498361171d565b73ffffffffffffffffffffffffffffffffffffffff167f8c5be1e5ebec7d5bd14f71427d1e84f3dd0314c0f7b2291e5b200ac8c7c3b92560405160405180910390a45050565b60008061189b8361171d565b90508073ffffffffffffffffffffffffffffffffffffffff168473ffffffffffffffffffffffffffffffffffffffff1614806118dd57506118dc8185611527565b5b8061191b57508373ffffffffffffffffffffffffffffffffffffffff16611903846108c3565b73ffffffffffffffffffffffffffffffffffffffff16145b91505092915050565b8273ffffffffffffffffffffffffffffffffffffffff166119448261171d565b73ffffffffffffffffffffffffffffffffffffffff161461199a576040517f08c379a0000000000000000000000000000000000000000000000000000000008152600401611991906140b4565b60405180910390fd5b600073ffffffffffffffffffffffffffffffffffffffff168273ffffffffffffffffffffffffffffffffffffffff1603611a09576040517f08c379a0000000000000000000000000000000000000000000000000000000008152600401611a0090614146565b60405180910390fd5b611a14838383611bae565b611a1f6000826117d6565b6001600360008573ffffffffffffffffffffffffffffffffffffffff1673ffffffffffffffffffffffffffffffffffffffff1681526020019081526020016000206000828254611a6f9190614166565b925050819055506001600360008473ffffffffffffffffffffffffffffffffffffffff1673ffffffffffffffffffffffffffffffffffffffff1681526020019081526020016000206000828254611ac6919061419a565b92505081905550816002600083815260200190815260200160002060006101000a81548173ffffffffffffffffffffffffffffffffffffffff021916908373ffffffffffffffffffffffffffffffffffffffff160217905550808273ffffffffffffffffffffffffffffffffffffffff168473ffffffffffffffffffffffffffffffffffffffff167fddf252ad1be2c89b69c2b068fc378daa952ba7f163c4a11628f55a4df523b3ef60405160405180910390a4611b8583838361230b565b505050565b6001816000016000828254019250508190555050565b600081600001549050919050565b600073ffffffffffffffffffffffffffffffffffffffff168273ffffffffffffffffffffffffffffffffffffffff161480611c155750600073ffffffffffffffffffffffffffffffffffffffff168373ffffffffffffffffffffffffffffffffffffffff16145b611c54576040517f08c379a0000000000000000000000000000000000000000000000000000000008152600401611c4b9061423c565b60405180910390fd5b611c5f838383612310565b600073ffffffffffffffffffffffffffffffffffffffff168373ffffffffffffffffffffffffffffffffffffffff1603611c9d57611c9c81612422565b5b505050565b611cbc82826040518060200160405280600081525061244e565b5050565b611cc98261229f565b611d08576040517f08c379a0000000000000000000000000000000000000000000000000000000008152600401611cff906142ce565b60405180910390fd5b80600660008481526020019081526020016000209080519060200190611d2f929190612d80565b505050565b60405180602001604052808281525060146000838152602001908152602001600020600082015181600001559050507f11951808c5f3cb4792c7d4f6257b1d93be290f53342279117db78d24b3b3a20c8133604051611d949291906142ee565b60405180910390a150565b611da76117ce565b73ffffffffffffffffffffffffffffffffffffffff16611dc5611370565b73ffffffffffffffffffffffffffffffffffffffff1614611e1b576040517f08c379a0000000000000000000000000000000000000000000000000000000008152600401611e1290614363565b60405180910390fd5b565b6000600b60009054906101000a900473ffffffffffffffffffffffffffffffffffffffff16905081600b60006101000a81548173ffffffffffffffffffffffffffffffffffffffff021916908373ffffffffffffffffffffffffffffffffffffffff1602179055508173ffffffffffffffffffffffffffffffffffffffff168173ffffffffffffffffffffffffffffffffffffffff167f8be0079c531659141344cd1fd0a4f28419497f9722a3daafe3b4186f6b6457e060405160405180910390a35050565b8173ffffffffffffffffffffffffffffffffffffffff168373ffffffffffffffffffffffffffffffffffffffff1603611f51576040517f08c379a0000000000000000000000000000000000000000000000000000000008152600401611f48906143cf565b60405180910390fd5b80600560008573ffffffffffffffffffffffffffffffffffffffff1673ffffffffffffffffffffffffffffffffffffffff16815260200190815260200160002060008473ffffffffffffffffffffffffffffffffffffffff1673ffffffffffffffffffffffffffffffffffffffff16815260200190815260200160002060006101000a81548160ff0219169083151502179055508173ffffffffffffffffffffffffffffffffffffffff168373ffffffffffffffffffffffffffffffffffffffff167f17307eab39ab6107e8899845ad3d59bd9653f200f220920489ca2b5937696c31836040516120429190612fc6565b60405180910390a3505050565b61205a848484611924565b612066848484846124a9565b6120a5576040517f08c379a000000000000000000000000000000000000000000000000000000000815260040161209c90614461565b60405180910390fd5b50505050565b60606120b6826116d2565b60006006600084815260200190815260200160002080546120d690613873565b80601f016020809104026020016040519081016040528092919081815260200182805461210290613873565b801561214f5780601f106121245761010080835404028352916020019161214f565b820191906000526020600020905b81548152906001019060200180831161213257829003601f168201915b505050505090506000612160612630565b905060008151036121755781925050506121b8565b6000825111156121aa5780826040516020016121929291906144bd565b604051602081830303815290604052925050506121b8565b6121b384612647565b925050505b919050565b60007f80ac58cd000000000000000000000000000000000000000000000000000000007bffffffffffffffffffffffffffffffffffffffffffffffffffffffff1916827bffffffffffffffffffffffffffffffffffffffffffffffffffffffff1916148061228857507f5b5e139f000000000000000000000000000000000000000000000000000000007bffffffffffffffffffffffffffffffffffffffffffffffffffffffff1916827bffffffffffffffffffffffffffffffffffffffffffffffffffffffff1916145b806122985750612297826126af565b5b9050919050565b60008073ffffffffffffffffffffffffffffffffffffffff166002600084815260200190815260200160002060009054906101000a900473ffffffffffffffffffffffffffffffffffffffff1673ffffffffffffffffffffffffffffffffffffffff1614159050919050565b505050565b61231b838383612719565b600073ffffffffffffffffffffffffffffffffffffffff168373ffffffffffffffffffffffffffffffffffffffff160361235d576123588161271e565b61239c565b8173ffffffffffffffffffffffffffffffffffffffff168373ffffffffffffffffffffffffffffffffffffffff161461239b5761239a8382612767565b5b5b600073ffffffffffffffffffffffffffffffffffffffff168273ffffffffffffffffffffffffffffffffffffffff16036123de576123d9816128d4565b61241d565b8273ffffffffffffffffffffffffffffffffffffffff168273ffffffffffffffffffffffffffffffffffffffff161461241c5761241b82826129a5565b5b5b505050565b601081908060018154018082558091505060019003906000526020600020016000909190919091505550565b6124588383612a24565b61246560008484846124a9565b6124a4576040517f08c379a000000000000000000000000000000000000000000000000000000000815260040161249b90614461565b60405180910390fd5b505050565b60006124ca8473ffffffffffffffffffffffffffffffffffffffff16612bfd565b15612623578373ffffffffffffffffffffffffffffffffffffffff1663150b7a026124f36117ce565b8786866040518563ffffffff1660e01b81526004016125159493929190614536565b6020604051808303816000875af192505050801561255157506040513d601f19601f8201168201806040525081019061254e9190614597565b60015b6125d3573d8060008114612581576040519150601f19603f3d011682016040523d82523d6000602084013e612586565b606091505b5060008151036125cb576040517f08c379a00000000000000000000000000000000000000000000000000000000081526004016125c290614461565b60405180910390fd5b805181602001fd5b63150b7a0260e01b7bffffffffffffffffffffffffffffffffffffffffffffffffffffffff1916817bffffffffffffffffffffffffffffffffffffffffffffffffffffffff191614915050612628565b600190505b949350505050565b606060405180602001604052806000815250905090565b6060612652826116d2565b600061265c612630565b9050600081511161267c57604051806020016040528060008152506126a7565b8061268684612c20565b6040516020016126979291906144bd565b6040516020818303038152906040525b915050919050565b60007f01ffc9a7000000000000000000000000000000000000000000000000000000007bffffffffffffffffffffffffffffffffffffffffffffffffffffffff1916827bffffffffffffffffffffffffffffffffffffffffffffffffffffffff1916149050919050565b505050565b600980549050600a600083815260200190815260200160002081905550600981908060018154018082558091505060019003906000526020600020016000909190919091505550565b60006001612774846112a5565b61277e9190614166565b9050600060086000848152602001908152602001600020549050818114612863576000600760008673ffffffffffffffffffffffffffffffffffffffff1673ffffffffffffffffffffffffffffffffffffffff168152602001908152602001600020600084815260200190815260200160002054905080600760008773ffffffffffffffffffffffffffffffffffffffff1673ffffffffffffffffffffffffffffffffffffffff168152602001908152602001600020600084815260200190815260200160002081905550816008600083815260200190815260200160002081905550505b6008600084815260200190815260200160002060009055600760008573ffffffffffffffffffffffffffffffffffffffff1673ffffffffffffffffffffffffffffffffffffffff16815260200190815260200160002060008381526020019081526020016000206000905550505050565b600060016009805490506128e89190614166565b90506000600a600084815260200190815260200160002054905060006009838154811061291857612917613a5a565b5b90600052602060002001549050806009838154811061293a57612939613a5a565b5b906000526020600020018190555081600a600083815260200190815260200160002081905550600a6000858152602001908152602001600020600090556009805480612989576129886145c4565b5b6001900381819060005260206000200160009055905550505050565b60006129b0836112a5565b905081600760008573ffffffffffffffffffffffffffffffffffffffff1673ffffffffffffffffffffffffffffffffffffffff168152602001908152602001600020600083815260200190815260200160002081905550806008600084815260200190815260200160002081905550505050565b600073ffffffffffffffffffffffffffffffffffffffff168273ffffffffffffffffffffffffffffffffffffffff1603612a93576040517f08c379a0000000000000000000000000000000000000000000000000000000008152600401612a8a9061463f565b60405180910390fd5b612a9c8161229f565b15612adc576040517f08c379a0000000000000000000000000000000000000000000000000000000008152600401612ad3906146ab565b60405180910390fd5b612ae860008383611bae565b6001600360008473ffffffffffffffffffffffffffffffffffffffff1673ffffffffffffffffffffffffffffffffffffffff1681526020019081526020016000206000828254612b38919061419a565b92505081905550816002600083815260200190815260200160002060006101000a81548173ffffffffffffffffffffffffffffffffffffffff021916908373ffffffffffffffffffffffffffffffffffffffff160217905550808273ffffffffffffffffffffffffffffffffffffffff16600073ffffffffffffffffffffffffffffffffffffffff167fddf252ad1be2c89b69c2b068fc378daa952ba7f163c4a11628f55a4df523b3ef60405160405180910390a4612bf96000838361230b565b5050565b6000808273ffffffffffffffffffffffffffffffffffffffff163b119050919050565b606060008203612c67576040518060400160405280600181526020017f30000000000000000000000000000000000000000000000000000000000000008152509050612d7b565b600082905060005b60008214612c99578080612c8290613bdc565b915050600a82612c9291906146fa565b9150612c6f565b60008167ffffffffffffffff811115612cb557612cb461337c565b5b6040519080825280601f01601f191660200182016040528015612ce75781602001600182028036833780820191505090505b5090505b60008514612d7457600182612d009190614166565b9150600a85612d0f919061472b565b6030612d1b919061419a565b60f81b818381518110612d3157612d30613a5a565b5b60200101907effffffffffffffffffffffffffffffffffffffffffffffffffffffffffffff1916908160001a905350600a85612d6d91906146fa565b9450612ceb565b8093505050505b919050565b828054612d8c90613873565b90600052602060002090601f016020900481019282612dae5760008555612df5565b82601f10612dc757805160ff1916838001178555612df5565b82800160010185558215612df5579182015b82811115612df4578251825591602001919060010190612dd9565b5b509050612e029190612ef5565b5090565b828054828255906000526020600020908101928215612e475760005260206000209182015b82811115612e46578254825591600101919060010190612e2b565b5b509050612e549190612ef5565b5090565b6040518060200160405280600081525090565b828054828255906000526020600020908101928215612ee4579160200282015b82811115612ee35782518260006101000a81548173ffffffffffffffffffffffffffffffffffffffff021916908373ffffffffffffffffffffffffffffffffffffffff16021790555091602001919060010190612e8b565b5b509050612ef19190612ef5565b5090565b5b80821115612f0e576000816000905550600101612ef6565b5090565b6000604051905090565b600080fd5b600080fd5b60007fffffffff0000000000000000000000000000000000000000000000000000000082169050919050565b612f5b81612f26565b8114612f6657600080fd5b50565b600081359050612f7881612f52565b92915050565b600060208284031215612f9457612f93612f1c565b5b6000612fa284828501612f69565b91505092915050565b60008115159050919050565b612fc081612fab565b82525050565b6000602082019050612fdb6000830184612fb7565b92915050565b600081519050919050565b600082825260208201905092915050565b60005b8381101561301b578082015181840152602081019050613000565b8381111561302a576000848401525b50505050565b6000601f19601f8301169050919050565b600061304c82612fe1565b6130568185612fec565b9350613066818560208601612ffd565b61306f81613030565b840191505092915050565b600060208201905081810360008301526130948184613041565b905092915050565b6000819050919050565b6130af8161309c565b81146130ba57600080fd5b50565b6000813590506130cc816130a6565b92915050565b6000602082840312156130e8576130e7612f1c565b5b60006130f6848285016130bd565b91505092915050565b600073ffffffffffffffffffffffffffffffffffffffff82169050919050565b600061312a826130ff565b9050919050565b61313a8161311f565b82525050565b60006020820190506131556000830184613131565b92915050565b6131648161311f565b811461316f57600080fd5b50565b6000813590506131818161315b565b92915050565b6000806040838503121561319e5761319d612f1c565b5b60006131ac85828601613172565b92505060206131bd858286016130bd565b9150509250929050565b6131d08161309c565b82525050565b60006020820190506131eb60008301846131c7565b92915050565b60008060006060848603121561320a57613209612f1c565b5b600061321886828701613172565b935050602061322986828701613172565b925050604061323a868287016130bd565b9150509250925092565b600081519050919050565b600082825260208201905092915050565b6000819050602082019050919050565b600082825260208201905092915050565b600061328c82612fe1565b6132968185613270565b93506132a6818560208601612ffd565b6132af81613030565b840191505092915050565b60006132c68383613281565b905092915050565b6000602082019050919050565b60006132e682613244565b6132f0818561324f565b93508360208202850161330285613260565b8060005b8581101561333e578484038952815161331f85826132ba565b945061332a836132ce565b925060208a01995050600181019050613306565b50829750879550505050505092915050565b6000602082019050818103600083015261336a81846132db565b905092915050565b600080fd5b600080fd5b7f4e487b7100000000000000000000000000000000000000000000000000000000600052604160045260246000fd5b6133b482613030565b810181811067ffffffffffffffff821117156133d3576133d261337c565b5b80604052505050565b60006133e6612f12565b90506133f282826133ab565b919050565b600067ffffffffffffffff8211156134125761341161337c565b5b61341b82613030565b9050602081019050919050565b82818337600083830152505050565b600061344a613445846133f7565b6133dc565b90508281526020810184848401111561346657613465613377565b5b613471848285613428565b509392505050565b600082601f83011261348e5761348d613372565b5b813561349e848260208601613437565b91505092915050565b6000602082840312156134bd576134bc612f1c565b5b600082013567ffffffffffffffff8111156134db576134da612f21565b5b6134e784828501613479565b91505092915050565b60006020828403121561350657613505612f1c565b5b600061351484828501613172565b91505092915050565b6135268161309c565b82525050565b602082016000820151613542600085018261351d565b50505050565b600060208201905061355d600083018461352c565b92915050565b61356c81612fab565b811461357757600080fd5b50565b60008135905061358981613563565b92915050565b600080604083850312156135a6576135a5612f1c565b5b60006135b485828601613172565b92505060206135c58582860161357a565b9150509250929050565b600067ffffffffffffffff8211156135ea576135e961337c565b5b6135f382613030565b9050602081019050919050565b600061361361360e846135cf565b6133dc565b90508281526020810184848401111561362f5761362e613377565b5b61363a848285613428565b509392505050565b600082601f83011261365757613656613372565b5b8135613667848260208601613600565b91505092915050565b6000806000806080858703121561368a57613689612f1c565b5b600061369887828801613172565b94505060206136a987828801613172565b93505060406136ba878288016130bd565b925050606085013567ffffffffffffffff8111156136db576136da612f21565b5b6136e787828801613642565b91505092959194509250565b6000806040838503121561370a57613709612f1c565b5b600061371885828601613172565b925050602061372985828601613172565b9150509250929050565b600067ffffffffffffffff82111561374e5761374d61337c565b5b602082029050602081019050919050565b600080fd5b600061377761377284613733565b6133dc565b9050808382526020820190506020840283018581111561379a5761379961375f565b5b835b818110156137c357806137af8882613172565b84526020840193505060208101905061379c565b5050509392505050565b600082601f8301126137e2576137e1613372565b5b81356137f2848260208601613764565b91505092915050565b60006020828403121561381157613810612f1c565b5b600082013567ffffffffffffffff81111561382f5761382e612f21565b5b61383b848285016137cd565b91505092915050565b7f4e487b7100000000000000000000000000000000000000000000000000000000600052602260045260246000fd5b6000600282049050600182168061388b57607f821691505b60208210810361389e5761389d613844565b5b50919050565b7f4552433732313a20617070726f76616c20746f2063757272656e74206f776e6560008201527f7200000000000000000000000000000000000000000000000000000000000000602082015250565b6000613900602183612fec565b915061390b826138a4565b604082019050919050565b6000602082019050818103600083015261392f816138f3565b9050919050565b7f4552433732313a20617070726f76652063616c6c6572206973206e6f7420746f60008201527f6b656e206f776e6572206e6f7220617070726f76656420666f7220616c6c0000602082015250565b6000613992603e83612fec565b915061399d82613936565b604082019050919050565b600060208201905081810360008301526139c181613985565b9050919050565b7f4552433732313a2063616c6c6572206973206e6f7420746f6b656e206f776e6560008201527f72206e6f7220617070726f766564000000000000000000000000000000000000602082015250565b6000613a24602e83612fec565b9150613a2f826139c8565b604082019050919050565b60006020820190508181036000830152613a5381613a17565b9050919050565b7f4e487b7100000000000000000000000000000000000000000000000000000000600052603260045260246000fd5b600081519050613a98816130a6565b92915050565b600060208284031215613ab457613ab3612f1c565b5b6000613ac284828501613a89565b91505092915050565b6000604082019050613ae06000830185613131565b613aed60208301846131c7565b9392505050565b6000613b07613b02846133f7565b6133dc565b905082815260208101848484011115613b2357613b22613377565b5b613b2e848285612ffd565b509392505050565b600082601f830112613b4b57613b4a613372565b5b8151613b5b848260208601613af4565b91505092915050565b600060208284031215613b7a57613b79612f1c565b5b600082015167ffffffffffffffff811115613b9857613b97612f21565b5b613ba484828501613b36565b91505092915050565b7f4e487b7100000000000000000000000000000000000000000000000000000000600052601160045260246000fd5b6000613be78261309c565b91507fffffffffffffffffffffffffffffffffffffffffffffffffffffffffffffffff8203613c1957613c18613bad565b5b600182019050919050565b7f455243373231456e756d657261626c653a206f776e657220696e646578206f7560008201527f74206f6620626f756e6473000000000000000000000000000000000000000000602082015250565b6000613c80602b83612fec565b9150613c8b82613c24565b604082019050919050565b60006020820190508181036000830152613caf81613c73565b9050919050565b7f596f752068616420616c7265616479206d696e742074686973204e4654000000600082015250565b6000613cec601d83612fec565b9150613cf782613cb6565b602082019050919050565b60006020820190508181036000830152613d1b81613cdf565b9050919050565b7f536f7272792c20616d6f756e7473206f662074686973204e465420686176652060008201527f7265616368656420746865206c696d6974000000000000000000000000000000602082015250565b6000613d7e603183612fec565b9150613d8982613d22565b604082019050919050565b60006020820190508181036000830152613dad81613d71565b9050919050565b7f455243373231456e756d657261626c653a20676c6f62616c20696e646578206f60008201527f7574206f6620626f756e64730000000000000000000000000000000000000000602082015250565b6000613e10602c83612fec565b9150613e1b82613db4565b604082019050919050565b60006020820190508181036000830152613e3f81613e03565b9050919050565b7f4552433732313a2061646472657373207a65726f206973206e6f74206120766160008201527f6c6964206f776e65720000000000000000000000000000000000000000000000602082015250565b6000613ea2602983612fec565b9150613ead82613e46565b604082019050919050565b60006020820190508181036000830152613ed181613e95565b9050919050565b7f496e646578206f7574206f6620626f756e647300000000000000000000000000600082015250565b6000613f0e601383612fec565b9150613f1982613ed8565b602082019050919050565b60006020820190508181036000830152613f3d81613f01565b9050919050565b7f4f776e61626c653a206e6577206f776e657220697320746865207a65726f206160008201527f6464726573730000000000000000000000000000000000000000000000000000602082015250565b6000613fa0602683612fec565b9150613fab82613f44565b604082019050919050565b60006020820190508181036000830152613fcf81613f93565b9050919050565b7f4552433732313a20696e76616c696420746f6b656e2049440000000000000000600082015250565b600061400c601883612fec565b915061401782613fd6565b602082019050919050565b6000602082019050818103600083015261403b81613fff565b9050919050565b7f4552433732313a207472616e736665722066726f6d20696e636f72726563742060008201527f6f776e6572000000000000000000000000000000000000000000000000000000602082015250565b600061409e602583612fec565b91506140a982614042565b604082019050919050565b600060208201905081810360008301526140cd81614091565b9050919050565b7f4552433732313a207472616e7366657220746f20746865207a65726f2061646460008201527f7265737300000000000000000000000000000000000000000000000000000000602082015250565b6000614130602483612fec565b915061413b826140d4565b604082019050919050565b6000602082019050818103600083015261415f81614123565b9050919050565b60006141718261309c565b915061417c8361309c565b92508282101561418f5761418e613bad565b5b828203905092915050565b60006141a58261309c565b91506141b08361309c565b9250827fffffffffffffffffffffffffffffffffffffffffffffffffffffffffffffffff038211156141e5576141e4613bad565b5b828201905092915050565b7f596f752063616e2774207472616e736665722074686973204e46540000000000600082015250565b6000614226601b83612fec565b9150614231826141f0565b602082019050919050565b6000602082019050818103600083015261425581614219565b9050919050565b7f45524337323155524953746f726167653a2055524920736574206f66206e6f6e60008201527f6578697374656e7420746f6b656e000000000000000000000000000000000000602082015250565b60006142b8602e83612fec565b91506142c38261425c565b604082019050919050565b600060208201905081810360008301526142e7816142ab565b9050919050565b600060408201905061430360008301856131c7565b6143106020830184613131565b9392505050565b7f4f776e61626c653a2063616c6c6572206973206e6f7420746865206f776e6572600082015250565b600061434d602083612fec565b915061435882614317565b602082019050919050565b6000602082019050818103600083015261437c81614340565b9050919050565b7f4552433732313a20617070726f766520746f2063616c6c657200000000000000600082015250565b60006143b9601983612fec565b91506143c482614383565b602082019050919050565b600060208201905081810360008301526143e8816143ac565b9050919050565b7f4552433732313a207472616e7366657220746f206e6f6e20455243373231526560008201527f63656976657220696d706c656d656e7465720000000000000000000000000000602082015250565b600061444b603283612fec565b9150614456826143ef565b604082019050919050565b6000602082019050818103600083015261447a8161443e565b9050919050565b600081905092915050565b600061449782612fe1565b6144a18185614481565b93506144b1818560208601612ffd565b80840191505092915050565b60006144c9828561448c565b91506144d5828461448c565b91508190509392505050565b600081519050919050565b600082825260208201905092915050565b6000614508826144e1565b61451281856144ec565b9350614522818560208601612ffd565b61452b81613030565b840191505092915050565b600060808201905061454b6000830187613131565b6145586020830186613131565b61456560408301856131c7565b818103606083015261457781846144fd565b905095945050505050565b60008151905061459181612f52565b92915050565b6000602082840312156145ad576145ac612f1c565b5b60006145bb84828501614582565b91505092915050565b7f4e487b7100000000000000000000000000000000000000000000000000000000600052603160045260246000fd5b7f4552433732313a206d696e7420746f20746865207a65726f2061646472657373600082015250565b6000614629602083612fec565b9150614634826145f3565b602082019050919050565b600060208201905081810360008301526146588161461c565b9050919050565b7f4552433732313a20746f6b656e20616c7265616479206d696e74656400000000600082015250565b6000614695601c83612fec565b91506146a08261465f565b602082019050919050565b600060208201905081810360008301526146c481614688565b9050919050565b7f4e487b7100000000000000000000000000000000000000000000000000000000600052601260045260246000fd5b60006147058261309c565b91506147108361309c565b9250826147205761471f6146cb565b5b828204905092915050565b60006147368261309c565b91506147418361309c565b925082614751576147506146cb565b5b82820690509291505056fea26469706673582212203844d4970151f8ab89b69e10abeb88a28c7dfe62b623aaab536cba211da8363964736f6c634300080e0033",
  "immutableReferences": {},
  "source": "// SPDX-License-Identifier: MIT\r\npragma solidity >=0.4.22 <0.9.0;\r\n\r\nimport '@openzeppelin/contracts/token/ERC721/extensions/ERC721URIStorage.sol';\r\nimport '@openzeppelin/contracts/token/ERC721/extensions/ERC721Enumerable.sol';\r\nimport '@openzeppelin/contracts/utils/Counters.sol';\r\nimport '@openzeppelin/contracts/access/Ownable.sol';\r\n\r\ninterface INFT {\r\n  function tokenOfOwnerByIndex(address owner, uint256 index) external view returns (uint256 tokenId);\r\n  function balanceOf(address owner) external view returns (uint256 balance);\r\n  function tokenURI(uint256 tokenId) external view returns(string memory);\r\n}\r\n\r\ncontract PocCollection is ERC721URIStorage,ERC721Enumerable, Ownable {\r\n  using Counters for Counters.Counter;\r\n\r\n  Counters.Counter private _listedItems;\r\n  Counters.Counter private _tokenIds;\r\n\r\n  struct NFTItem {\r\n    uint256 tokenId;\r\n  }\r\n\r\n  address[] private _listenAddress = [0x24a16bB4BAb401bb462a809E98012A73782dFDfD];\r\n\r\n  string[] public ownedNFTURIs;\r\n\r\n  uint256[] private _allNFTs;\r\n\r\n  mapping(uint256 => address[]) private _ownerListenAddress;\r\n\r\n  mapping(address => bool) private _existsOwner;\r\n\r\n  mapping(uint256 => address) private _owners;\r\n\r\n  mapping(uint256 => NFTItem) private _idToNFTItem;\r\n\r\n  mapping(address => uint256) private _tokenIdByOwner;\r\n\r\n  event NFTItemCreated(\r\n    uint256 tokenId,\r\n    address creator\r\n  );\r\n\r\n  constructor() ERC721('FattyCreaturesNFT', 'FCNFT') {}\r\n\r\n  // functions\r\n\r\n  function ownerExists(address owner) public view returns (bool) {\r\n    return _existsOwner[owner] == true;\r\n  }\r\n\r\n\r\n  function mintToken(string memory pocTokenuri)\r\n    public\r\n    payable\r\n    returns (uint256)\r\n  {\r\n    require(!ownerExists(msg.sender), 'You had already mint this NFT');\r\n    require(pocTotalSupply() <= 199, 'Sorry, amounts of this NFT have reached the limit');\r\n\r\n    _tokenIds.increment();\r\n    _listedItems.increment();\r\n\r\n\r\n    uint256 newTokenId = _tokenIds.current();\r\n\r\n    _beforeTokenTransfer(address(0), msg.sender, newTokenId);\r\n    _safeMint(msg.sender, newTokenId);\r\n\r\n    _setTokenURI(newTokenId, pocTokenuri);\r\n    _owners[newTokenId] == msg.sender;\r\n    _ownerListenAddress[newTokenId] = _listenAddress;\r\n    _existsOwner[msg.sender] == true;\r\n    _createNFTItem(newTokenId);\r\n    \r\n    return newTokenId;\r\n  }\r\n\r\n  function _createNFTItem(uint256 tokenId) private {\r\n\r\n    _idToNFTItem[tokenId] = NFTItem(tokenId);\r\n\r\n    emit NFTItemCreated(tokenId, msg.sender);\r\n  }\r\n\r\n  function pocTotalSupply() public view returns (uint256) {\r\n    return _allNFTs.length;\r\n  }\r\n\r\n  function poctokenByIndex(uint256 index) public view returns (uint256) {\r\n    require(index < pocTotalSupply(), 'Index out of bounds');\r\n    return _allNFTs[index];\r\n  }\r\n\r\n  function getNFTItem(uint256 tokenId) public view returns (NFTItem memory) {\r\n    return _idToNFTItem[tokenId];\r\n  }\r\n\r\n  function getTokenID(address owner) public view returns (uint256) {\r\n    return _tokenIdByOwner[owner];\r\n  }\r\n\r\n  function ownerOf(uint256 tokenId)public view virtual override(ERC721, IERC721) returns(address) {\r\n    return super.ownerOf(tokenId);\r\n  }\r\n\r\n  function _beforeTokenTransfer(\r\n    address from,\r\n    address to,\r\n    uint256 tokenId\r\n  ) internal virtual override(ERC721, ERC721Enumerable) {\r\n    require(to == address(0) || from == address(0) , \"You can't transfer this NFT\");\r\n    super._beforeTokenTransfer(from, to, tokenId);\r\n\r\n    if (from == address(0)) {\r\n      _tokenToAllTokenEnumeration(tokenId);\r\n    }\r\n  }\r\n\r\n  function _tokenToAllTokenEnumeration(uint256 tokenId) private {\r\n    _allNFTs.push(tokenId);\r\n  }\r\n\r\n  function tokenURI(uint256 tokenId) public view virtual override(ERC721, ERC721URIStorage) returns(string memory) {\r\n    return super.tokenURI(tokenId);\r\n  }\r\n\r\n  function getOwnedNfts(uint256 tokenId) public returns (string[] memory) {\r\n    address[] memory items = _ownerListenAddress[tokenId];\r\n    address owner = ownerOf(tokenId);\r\n    for(uint256 i = 0; i < items.length; i++) {\r\n      INFT item = INFT(items[i]);\r\n      uint256 ownedItemsCount = item.balanceOf(owner);\r\n      for (uint256 j = 0; j < ownedItemsCount; j++) {\r\n        uint256 nftTokenid = item.tokenOfOwnerByIndex(owner, j);\r\n        string memory nfturi = item.tokenURI(nftTokenid);\r\n        ownedNFTURIs.push(nfturi);\r\n      }\r\n    }\r\n\r\n    return ownedNFTURIs;\r\n  }\r\n\r\n  function _burn(uint256 tokenId) internal override(ERC721, ERC721URIStorage) {\r\n    super._burn(tokenId);\r\n  }\r\n\r\n  function supportsInterface(bytes4 interfaceId) public view virtual override(ERC721, ERC721Enumerable) returns (bool) {\r\n      return\r\n          interfaceId == type(IERC721).interfaceId ||\r\n          interfaceId == type(IERC721Metadata).interfaceId ||\r\n          super.supportsInterface(interfaceId);\r\n  }\r\n\r\n  function setListenContracts(address[] memory listenAddress)public {\r\n    _listenAddress = listenAddress;\r\n  }\r\n}\r\n",
  "sourcePath": "D:\\download\\truffle-template-main\\poc-collection\\contracts\\PocCollection.sol",
  "compiler": {
    "name": "solc",
    "version": "0.8.14+commit.80d49f37.Emscripten.clang"
  },
  "schemaVersion": "3.4.7",
  "updatedAt": "2022-08-03T13:03:51.485Z",
  "networkType": "ethereum",
  "devdoc": {
    "kind": "dev",
    "methods": {
      "approve(address,uint256)": {
        "details": "See {IERC721-approve}."
      },
      "balanceOf(address)": {
        "details": "See {IERC721-balanceOf}."
      },
      "getApproved(uint256)": {
        "details": "See {IERC721-getApproved}."
      },
      "isApprovedForAll(address,address)": {
        "details": "See {IERC721-isApprovedForAll}."
      },
      "name()": {
        "details": "See {IERC721Metadata-name}."
      },
      "owner()": {
        "details": "Returns the address of the current owner."
      },
      "renounceOwnership()": {
        "details": "Leaves the contract without owner. It will not be possible to call `onlyOwner` functions anymore. Can only be called by the current owner. NOTE: Renouncing ownership will leave the contract without an owner, thereby removing any functionality that is only available to the owner."
      },
      "safeTransferFrom(address,address,uint256)": {
        "details": "See {IERC721-safeTransferFrom}."
      },
      "safeTransferFrom(address,address,uint256,bytes)": {
        "details": "See {IERC721-safeTransferFrom}."
      },
      "setApprovalForAll(address,bool)": {
        "details": "See {IERC721-setApprovalForAll}."
      },
      "symbol()": {
        "details": "See {IERC721Metadata-symbol}."
      },
      "tokenByIndex(uint256)": {
        "details": "See {IERC721Enumerable-tokenByIndex}."
      },
      "tokenOfOwnerByIndex(address,uint256)": {
        "details": "See {IERC721Enumerable-tokenOfOwnerByIndex}."
      },
      "totalSupply()": {
        "details": "See {IERC721Enumerable-totalSupply}."
      },
      "transferFrom(address,address,uint256)": {
        "details": "See {IERC721-transferFrom}."
      },
      "transferOwnership(address)": {
        "details": "Transfers ownership of the contract to a new account (`newOwner`). Can only be called by the current owner."
      }
    },
    "version": 1
  },
  "userdoc": {
    "kind": "user",
    "methods": {},
    "version": 1
  }
}